:100000000C9436000C9448040C9448040C94480456
:100010000C9448040C9448040C9448040C94480430
:100020000C9448040C9448040C9448040C94480420
:100030000C9448040C9448040C9448040C94480410
:100040000C9448040C9448040C9448040C94480400
:100050000C94480400600061800061006200089E0A
:1000600000620063800063006600089F11241FBEC9
:10007000CFE5D8E0DEBFCDBFE4E5F0E040E017C05B
:10008000B591A59135912591059107FD0CC09591EC
:100090008591EF01F92FE82F05900D92A217B30774
:1000A000D9F7FE0104C01D92A217B307E1F7EC36A1
:1000B000F40731F70E9443040C94F803F894FFCF3F
:1000C00054726166666963204C6967687400726582
:1000D0006D61696E696E6720313020736563202021
:1000E0002000477265656E206C6564206973206F1F
:1000F0006E202020200020202020202020202020D2
:100100002020202020202020202020200072656D2B
:1001100061696E696E672035207365630059656C8F
:100120006C6F77206C6564206973206F6E002020EF
:1001300020202020202020202020202020202020BF
:1001400020202020200072656D61696E696E672035
:10015000372073656320202000526564206C65643D
:0A016000206973206F6E202020003C
:10016A00442319F04130E9F174C0813099F028F044
:10017A008230E9F0833041F16EC02AB381E090E029
:10018A0002C0880F991F6A95E2F7809582238ABB7D
:10019A0081E0089527B381E090E002C0880F991F9B
:1001AA006A95E2F78095822387BB81E0089524B39C
:1001BA0081E090E002C0880F991F6A95E2F7809566
:1001CA00822384BB81E0089521B381E090E002C0DC
:1001DA00880F991F6A95E2F78095822381BB81E097
:1001EA000895813091F028F08230D9F0833029F1D6
:1001FA0034C02AB381E090E002C0880F991F6A9543
:10020A00E2F7822B8ABB81E0089527B381E090E070
:10021A0002C0880F991F6A95E2F7822B87BB81E09B
:10022A00089524B381E090E002C0880F991F6A956F
:10023A00E2F7822B84BB81E0089521B381E090E04C
:10024A0002C0880F991F6A95E2F7822B81BB81E071
:0E025A00089581E0089580E0089580E0089501
:10026800442319F04130E9F174C0813099F028F045
:100278008230E9F0833041F16EC02BB381E090E029
:1002880002C0880F991F6A95E2F7809582238BBB7D
:1002980081E0089528B381E090E002C0880F991F9B
:1002A8006A95E2F78095822388BB81E0089525B39B
:1002B80081E090E002C0880F991F6A95E2F7809567
:1002C800822385BB81E0089522B381E090E002C0DB
:1002D800880F991F6A95E2F78095822382BB81E097
:1002E8000895813091F028F08230D9F0833029F1D7
:1002F80034C02BB381E090E002C0880F991F6A9543
:10030800E2F7822B8BBB81E0089528B381E090E06F
:1003180002C0880F991F6A95E2F7822B88BB81E09B
:10032800089525B381E090E002C0880F991F6A956F
:10033800E2F7822B85BB81E0089522B381E090E04B
:1003480002C0880F991F6A95E2F7822B82BB81E071
:0E035800089581E0089580E0089580E0089502
:10036600CF93C82F482F441F4427441F64E081E0E1
:100376000E943401C6FB442740F962E081E00E94F6
:100386003401C5FB442740F961E081E00E94340155
:10039600C4FB442740F960E081E00E94340140E05C
:1003A60063E080E00E94340141E062E080E00E9468
:1003B600340185E08A95F1F7000040E062E080E0D4
:1003C6000E9434018FE193E00197F1F700C000002D
:1003D600C3FB442740F964E081E00E943401C2FB7C
:1003E600442740F962E081E00E943401C1FB4427C2
:1003F60040F961E081E00E9434014C2F417060E0D9
:1004060081E00E94340141E062E080E00E94340114
:1004160095E09A95F1F7000040E062E080E00E94E6
:1004260034018FE39FE10197F1F700C0000081E0FE
:04043600CF910895C5
:10043A00CF93C82F482F441F4427441F64E081E00C
:10044A000E943401C6FB442740F962E081E00E9421
:10045A003401C5FB442740F961E081E00E94340180
:10046A00C4FB442740F960E081E00E94340141E086
:10047A0063E080E00E94340141E062E080E00E9493
:10048A00340185E08A95F1F7000040E062E080E0FF
:10049A000E9434018FE193E00197F1F700C0000058
:1004AA00C3FB442740F964E081E00E943401C2FBA7
:1004BA00442740F962E081E00E943401C1FB4427ED
:1004CA0040F961E081E00E9434014C2F417060E004
:1004DA0081E00E94340141E062E080E00E94340140
:1004EA0095E09A95F1F7000040E062E080E00E9412
:1004FA0034018FE39FE10197F1F700C0000081E02A
:04050A00CF910895F0
:10050E0041E060E081E00E94B50041E061E081E001
:10051E000E94B50041E062E081E00E94B50041E03A
:10052E0064E081E00E94B50041E063E080E00E945B
:10053E00B50041E062E080E00E94B5002FEF89EF48
:10054E0090E0215080409040E1F700C0000082E032
:10055E000E94B30188E20E94B3018CE00E94B301B5
:10056E0086E00E94B30181E00E94B30181E008950C
:10057E0082E08093620062E081E00E94610366E4A3
:10058E0071E080E00E94C50368EE73E080E090E0C9
:10059E000E94870362E082E00E94610369E571E0D8
:1005AE0080E00E94C50362E081E00E94610366EF75
:1005BE0070E080E00E94C50380916000813011F4EC
:1005CE000E943D040E94250482E08093600060E753
:0E05DE0077E180E090E00E94870381E00895BD
:1005EC0081E08093620062E00E9461036DE071E043
:1005FC0080E00E94C50368EE73E080E090E00E940A
:10060C00870362E082E00E9461036DE171E080E0AB
:10061C000E94C50362E081E00E9461036EE271E01A
:10062C0080E00E94C50380916000811102C00E948D
:10063C0019040E94370481E08093600060EA7FE037
:0C064C0080E090E00E94870381E00895A8
:100658001092620062E081E00E9461036EEC70E03B
:1006680080E00E94C50368EE73E080E090E00E949D
:10067800870362E082E00E94610362EE70E080E03E
:100688000E94C50362E081E00E94610366EF70E0AA
:1006980080E00E94C50380916000823011F40E94BE
:1006A8002B040E9413041092600068E273E280E059
:0A06B80090E00E94870381E008959E
:1006C200CF939FEF960F9331E8F4813091F028F0A9
:1006D200823031F0833039F009C080E0C1E00BC0D4
:1006E20084E1C1E008C084E5C1E005C080E0C0E06B
:1006F20002C080E4C1E0C13031F4860F80580E940C
:0C070200B30101C0C0E08C2FCF9108951E
:10070E00CF92DF92EF92FF926B017C0180E090E03E
:10071E000BC0EFE9FFE03197F1F700C00000209128
:10072E006100222349F00196AC0160E070E04C15A7
:10073E005D056E057F0568F3FF90EF90DF90CF901B
:02074E0008950C
:10075000CF9380916200811104C00E942C03C1E0FC
:1007600001C0C0E080916000811103C00E94F602C8
:1007700001C0C0E080916000813019F40E94BF0286
:0A07800001C0C0E08C2FCF91089556
:10078A00CF92DF92EF926B01E82E06C00E941D0203
:10079A008FEFC81AD80AE80AF6018491E7FC80812B
:0E07AA008111F4CF81E0EF90DF90CF900895A1
:1007B800109262008AE08093650085E0809364006F
:1007C80087E0809363000E94ED030E94A80381E004
:0207D800089582
:1007DA0063E080E00E94610360EC70E080E00E94C8
:0607EA00C50381E0089543
:1007F000EC010E944D040E944C04CE010E944E0464
:06080000CE010E944A0433
:100806000E9487020E941F040E940D040E94310468
:0408160081E00895E0
:0C081A0041E064E080E00E94B500089519
:0C08260041E064E080E00E94340108958D
:0C08320040E064E080E00E943401089582
:0C083E0041E067E081E00E94B5000895F1
:0C084A0041E067E081E00E943401089565
:0C08560040E067E081E00E94340108955A
:0C08620041E066E080E00E94B5000895CF
:0C086E0041E066E080E00E943401089543
:0C087A0040E066E080E00E943401089538
:0A0886000E9403040E94DC03FDCF72
:040890000C940000C4
:040894000E945E0060
:020898000895C1
:02089A000895BF
:02089C000895BD
:01089E000158
:01089F000751
:0108A0000552
:0108A1000A4C
:00000001FF
